:0400000080311E2805
:100008007E14803120007F08AC008B138B1A0B1DE7
:10001800102882319F2280312100911E182820004B
:10002800911E1828813184218B1720002C08FF008D
:100038007E10090080312028F901FA01FB01FC013A
:10004800FD01D001D101A03084000030850050307E
:100058008231D8228031203084000130850041303F
:100068008231D8228031C530840082308500463004
:100078008600003087000A308231DE227E102000A0
:100088008231122A463086000030870020308400F2
:10009800003085000A30F00016001A00F00B5028D6
:1000A8002000AB0105302B020318C428AA01083030
:1000B8002A020318BC282B08F0000330F035890BFE
:1000C8006228C8307007F1002A087107F200720828
:1000D800860087010103031DB4282B08F0000330B4
:1000E800F035890B7428A0307007F1002A087107D1
:1000F800F2007208860087010108510203189C2843
:100108000130F0002B0A8928F035890B88287008FF
:10011800F1002B35203E86008701403FF200413F29
:10012800F300720886007308870071088104B428F8
:100138000130F0002B0AA128F035890BA02870089F
:10014800FF3AF1002B35203E86008701403FF20040
:10015800413FF30072088600730887007108810523
:100168000130F0007008AA0708302A02031C5F2833
:100178000130F0007008AB0705302B02031C5A2829
:100188000130F0007008D10708002000B701B01F47
:10019800DA28AD09AE09AF09B009AD0A0319AE0AEC
:1001A8000319AF0A0319B00AB701B70AB41FEB283D
:1001B800B109B209B309B409B10A0319B20A03199A
:1001C800B30A0319B40A0130B5003508B706003080
:1001D800BB000030BA000030B9000030B800300869
:1001E8002F042E042D0403193429B601B60AB01BB6
:1001F80009290130AD35AE0DAF0DB00D890BFE28C4
:100208000130B5003508B607FB280130B835B90DFF
:10021800BA0DBB0D890B0A2930083402031D1E29AB
:100228002F083302031D1E292E083202031D1E2922
:100238002D083102031C29292D08B1022E08B23BD2
:100248002F08B33B3008B43B38140130B036AF0C3C
:10025800AE0CAD0C890B2A290130B602031D092901
:10026800370803194229B809B909BA09BB09B80AF4
:100278000319B90A0319BA0A0319BB0A3B08B000E3
:100288003A08AF003908AE003808AD00080023006E
:100298001E1120003C08AD003D08AE00AF01B001C2
:1002A8000030B4000230B300DC30B2006C30B10072
:1002B8008031C92020003008C5002F08C4002E084E
:1002C800C3002D08C2000130BE000030BF0000305E
:1002D800C0000030C1003E08C2023F08C33B4008CE
:1002E800C43B4108C53B420823009B009F111E12D6
:1002F8001D169D179E1620009112210091160800C8
:100308002000911E0800230019082000A0007D0885
:100318008600013087002008810091120130A0007A
:100328002008FD072030A0000130A100A009A10984
:10033800A00A0319A10A7D08A2000130A300200821
:100348002207A4002108233DA5002508803AA6001D
:1003580080302602031DB22940302402031CB6292E
:100368008231B3227D0886000130870081010800B0
:10037800413454342B3443344F344E3432343034D3
:10038800393431343434383441343834353434340D
:10039800373438340034073440340034803403347C
:1003A80008340334413454342B3452344F344C34ED
:1003B8004534303400340034413454342B3452340E
:1003C80045345334453454340034003441345434BF
:1003D800003400344F344B340034A0302000AD00DA
:1003E8000030AE000030AF00B0002830B10000305F
:1003F800B20082316E228131C8302000AD00003059
:10040800AE000030AF00B0002830B1000030B200BC
:1004180082316E222000D001D00A08008B1382316D
:10042800312282318231CF2282318131F1218231F0
:100438008231E722823180302000BC002530BD00A7
:1004480081314B2182318231E62282318231502240
:1004580082318231E4228231302A20000C080D08D2
:100468000E080F08100825008C018D018E018F01E0
:10047800900123008C018D018E018F0190012100D4
:100488008C018D018E018F01900124008C018D015A
:100498008E018F0190010800240095127830200009
:1004A800AF000030B0003008AE002F08AD00AE3607
:1004B800AD0CAE36AD0C2D08FF3EAF00FF302E3D23
:1004C800B0002F08240092001508F039083895006C
:1004D8009516080020002E08B4002D08B30001303E
:1004E800B1020030B23B310A0319320A031908007D
:1004F80033088600340887002F0881000130B307CD
:100508000030B43D732A7108F7007008F600013016
:10051800F4020030F53B740A0319750A0319080040
:100528007608860077088700720881000130F60790
:100538000030F73D8B2A0B11FD3020009700E53085
:1005480096000130F9070030FA3D0030FB3D0030DD
:10055800FC3D50080319080080314620080020306F
:10056800F8007808FD002030F0000130F10000307C
:10057800F200F3004130F4000030F50082318722A8
:1005880008000C3401340D3401340E3401340F34B6
:10059800013410340134200018143F309805CF304E
:1005A80098050B118B160800640080010131890B36
:1005B800D92A0034FE0012001E00FE0BDF2A003488
:0805C8008B1708000800080071
:020000040001F9
:04000E00E1FFFFDF30
:00000001FF
